:1000000012C019C018C017C016C015C014C013C044
:1000100012C011C010C00FC00EC00DC00CC00BC06C
:100020000AC009C008C011241FBECFE5D4E0DEBF5E
:10003000CDBF2CD03BC0E4CF94B321E030E002C070
:10004000220F331F8A95E2F7292B24BB089595B31D
:1000500021E030E002C0220F331F8A95E2F7292BFE
:1000600025BB089580E090E0F2DF81E090E0EFDFD3
:10007000089585B315BA08952FE58AEE90E02150D2
:1000800080409040E1F700C00000089580E090E0DB
:10009000D3DF81E090E0D0DF17BA81E088BBB09970
:1000A00003C0E0DFE9DFFBCFE4DFF9CFF894FFCF57
:00000001FF
