:1000000012C021C020C01FC01EC01DC01CC01BC00C
:100010001AC019C018C017C016C015C014C013C02C
:1000200012C011C010C011241FBECFE5D4E0DEBF46
:10003000CDBF20E0A0E6B0E001C01D92A136B2071E
:10004000E1F71FD02DC0DCCF1EBC8EB582608EBD07
:100050001DBC1CBC08958CB59DB58F3F910551F416
:1000600080916000811104C085E08093600002C02F
:10007000109260008CB59DB5019611F41DBC1CBC9E
:100080000895E2DF84B3876084BBE5DF8091600080
:10009000853021F485B3876085BBF7CF15BAF5CFDE
:0400A000F894FFCF02
:00000001FF
