:1000000012C019C018C017C016C015C014C013C044
:1000100012C011C010C00FC00EC00DC00CC00BC06C
:100020000AC009C008C011241FBECFE5D4E0DEBF5E
:10003000CDBF19D04BC0E4CF94B321E030E001C074
:10004000220F8A95EAF7292B24BB089595B321E066
:1000500030E001C0220F8A95EAF7292B25BB0895CD
:1000600085B315BA089580E090E0E6DF81E090E086
:10007000E3DF80E090E0EADF2FE986E891E02150BD
:1000800080409040E1F700C00000EADF2FE986E8F9
:1000900091E0215080409040E1F700C0000081E0F5
:1000A00090E0D4DF2FE986E891E021508040904035
:1000B000E1F700C00000D4DF2FE986E891E021508D
:1000C00080409040E1F700C00000D3CFF894FFCF0C
:00000001FF
