S01700004763634170706C69636174696F6E312E737265635B
S113000012C02CC02BC02AC029C028C027C026C0BB
S113001025C024C023C022C021C020C01FC01EC0D0
S11300201DC01CC01BC011241FBECFE5D4E0DEBF21
S1130030CDBF10E0A0E6B0E0E6E4F1E002C0059038
S11300400D92AA36B107D9F720E0AAE6B0E001C0C4
S11300501D92AC36B207E1F72DD073C0D1CF809199
S11300606A0090916B008130910589F01CF4892B12
S113007039F008958230910589F00397B1F008951D
S113008081E090E090936B0080936A00089582E091
S113009090E090936B0080936A00089583E090E071
S11300A090936B0080936A00089510926B001092F5
S11300B06A000895CF93DF93CDB7DEB72E970FB6BE
S11300C0F894DEBF0FBECDBF8FEF87BB8FE084BB3C
S11300D08AE0E0E6F0E0DE01119601900D928A9547
S11300E0E1F781E18B8782E18C8784E18D8788E168
S11300F08E8700E010E021C09C9BB1DFE0916A0094
S1130100F0916B008BE090E08C0F9D1FE80FF91FBE
S1130110808185BBE1E0F0E0EC0FFD1FE00FF11FF3
S1130120808188BB9FE926E881E09150204080408F
S1130130E1F700C000000F5F1F4F0A301105E4F221
S1090140D8CFF894FFCFB4
S10D0146039F250D9949411F01098B
S9030000FC
